:100000000C9496000C94B3000C94B3000C94B300C1
:100010000C94B3000C94B3000C9473030C94B300D1
:100020000C94B3000C94B3000C94B3000C94B30084
:100030000C94B3000C94B3000C94B3000C94B30074
:100040000C94B3000C94B3000C94B3000C94B30064
:100050000C94B300C100DA00F3000C012401240168
:100060002401240124012401240124012401240168
:100070002401240124012401240124012401240158
:100080002401240124012401240124012401240148
:1000900024012401C100DA00F3000C0131014A01FE
:1000A00063017C01940194019401940194019401F1
:1000B0009401940194019401940194019401940198
:1000C0009401940194019401940194019401940188
:1000D00094019401940194019401940131014A0125
:1000E00063017C01A201A901B001B701BD01BD01FD
:1000F000BD01BD01BD01BD01BD01BD01BD01BD0110
:10010000BD01BD01BD01BD01BD01BD01BD01BD01FF
:10011000BD01BD01BD01BD01BD01BD01BD01BD01EF
:10012000BD01BD01A201A901B001B70111241FBE8B
:10013000CFE5D8E0DEBFCDBF10E0A0E6B0E0E6EC52
:10014000F9E002C005900D92AA37B107D9F720E077
:10015000AAE7B0E001C01D92AF37B207E1F70E94F5
:10016000CD020C94E1040C94000090E0FC01E154F9
:10017000F109E432F10508F067C0E65DFF4F0C9429
:10018000CC04413059F42AB381E090E002C0880FDA
:10019000991F6A95E2F7822B8ABB08952AB381E002
:1001A00090E002C0880F991F6A95E2F7809582233C
:1001B0008ABB0895413059F427B381E090E002C032
:1001C000880F991F6A95E2F7822B87BB089527B3A2
:1001D00081E090E002C0880F991F6A95E2F7809550
:1001E000822387BB0895413059F424B381E090E025
:1001F00002C0880F991F6A95E2F7822B84BB08958D
:1002000024B381E090E002C0880F991F6A95E2F75D
:100210008095822384BB0895413059F421B381E055
:1002200090E002C0880F991F6A95E2F7822B81BB8C
:10023000089521B381E090E002C0880F991F6A956C
:10024000E2F78095822381BB089590E0FC01E154A0
:10025000F109E432F10508F067C0E25BFF4F0C944E
:10026000CC04413059F42BB381E090E002C0880FF8
:10027000991F6A95E2F7822B8BBB08952BB381E01F
:1002800090E002C0880F991F6A95E2F7809582235B
:100290008BBB0895413059F428B381E090E002C04F
:1002A000880F991F6A95E2F7822B88BB089528B3BF
:1002B00081E090E002C0880F991F6A95E2F780956F
:1002C000822388BB0895413059F425B381E090E042
:1002D00002C0880F991F6A95E2F7822B85BB0895AB
:1002E00025B381E090E002C0880F991F6A95E2F77C
:1002F0008095822385BB0895413059F422B381E073
:1003000090E002C0880F991F6A95E2F7822B82BBAA
:10031000089522B381E090E002C0880F991F6A958A
:10032000E2F78095822382BB08956295607F90E01A
:10033000FC01E154F109E432F105F8F4EE58FF4F05
:100340000C94CC048BB38F708BBB8BB3682B6BBBC3
:10035000089588B38F7088BB88B3682B68BB0895F5
:1003600085B38F7085BB85B3682B65BB089582B359
:100370008F7082BB82B3682B62BB089541E050E06E
:1003800060E070E082E490E00E9425018FE99FE048
:100390000197F1F700C0000040E050E060E070E03D
:1003A00082E490E00E9425018FE99FE00197F1F738
:1003B00000C000000895CF93C82F40E050E062E0F5
:1003C00070E082E490E00E9425016C2F62956F70CE
:1003D00070E081E490E00E9495010E94BE016C2FC4
:1003E00070E081E490E00E9495010E94BE018FECD4
:1003F00097E00197F1F700C00000CF9108952FEF2B
:1004000081EE94E0215080409040E1F700C0000070
:1004100041E050E064E070E081E490E00E94B500CB
:1004200041E050E065E070E081E490E00E94B500BA
:1004300041E050E066E070E081E490E00E94B500A9
:1004400041E050E067E070E081E490E00E94B50098
:1004500041E050E060E070E082E490E00E94B5008E
:1004600041E050E061E070E082E490E00E94B5007D
:1004700041E050E062E070E082E490E00E94B5006C
:1004800040E050E061E070E082E490E00E942501ED
:1004900082E00E94DB018FE19EE40197F1F700C04A
:1004A000000088E20E94DB018FEC97E00197F1F7F2
:1004B00000C0000081E00E94DB018FE19EE4019713
:1004C000F1F700C000008CE00E94DB018FEC97E0A8
:1004D0000197F1F700C0000086E00E94DB018FEC7D
:1004E00097E00197F1F700C000000895CF93C82F5F
:1004F00041E050E062E070E082E490E00E9425017B
:100500006C2F62956F7070E081E490E00E9495011D
:100510000E94BE016C2F70E081E490E00E94950182
:100520000E94BE01CF910895CF93DF93EC0103C0E9
:100530000E947602219688818111FACFDF91CF91B6
:10054000089581E00E94DB018FE19EE40197F1F7BD
:1005500000C0000008959FEF980F923070F4613151
:1005600070F4662371F0813019F48FE7860F0CC0A8
:10057000823049F48FEB860F07C080E805C080E821
:1005800003C080E801C080E00E94DB018FEC97E0AF
:100590000197F1F700C0000008950E94FF010E943A
:1005A00015030E943403EC018135910580F00E940F
:1005B000A10280E690E00E9494022FE38DE093E098
:1005C000215080409040E1F700C00000EACF61E098
:1005D00081E00E94AB028CE690E00E9494029E01B2
:1005E000ADECBCEC0E94D2048C01169507951695D3
:1005F00007951695079580E3800F0E947602C80143
:10060000880F991F000F111F000F111F000F111FDE
:10061000080F191FCE01801B910B805D0E9476028E
:1006200086E790E00E949402BCCF81B3816081BBD9
:1006300081B38F7B81BB8FB58E7F8FBD8FB58D7F53
:100640008FBD8EB5877F8EBD8EB58F7E8EBD8EB5EC
:1006500081608EBD8EB58D7F8EBD8EB58B7F8EBD3C
:100660008EB580688EBD089582B3816082BB83E0C1
:100670008A95F1F7000082B38E7F82BB8EB58064CD
:100680008EBD88B7806288BF08B605FEFDCF26B54F
:1006900037B588B7806288BF8EB58F7B8EBD08B6B0
:1006A00005FEFDCF66B577B588B7806288BF621B4F
:1006B000730B80E090E00E94D1032DEB37E346E816
:1006C00055E30E94370420E038E247E057E40E94F7
:1006D000370420E030E040E05FE30E9437040E94EE
:1006E000A203CB0108951F920F920FB60F9211240F
:1006F0008F939F9380917A0081110DC086B597B535
:1007000090937E0080937D0081E080937A008EB587
:100710008F7B8EBD10C080917A00813061F486B5E8
:1007200097B590937C0080937B0082E080937A0061
:100730008EB580648EBD9F918F910F900FBE0F90EC
:100740001F9018950E94160488F09F5798F0B92FB3
:100750009927B751B0F0E1F0660F771F881F991FF6
:100760001AF0BA95C9F714C0B13091F00E94300464
:10077000B1E008950C943004672F782F8827B85F74
:1007800039F0B93FCCF3869577956795B395D9F74E
:100790003EF490958095709561957F4F8F4F9F4F58
:1007A0000895E89409C097FB3EF490958095709564
:1007B00061957F4F8F4F9F4F9923A9F0F92F96E9AD
:1007C000BB279395F695879577956795B795F11122
:1007D000F8CFFAF4BB0F11F460FF1BC06F5F7F4FBF
:1007E0008F4F9F4F16C0882311F096E911C07723D1
:1007F00021F09EE8872F762F05C0662371F096E8DA
:10080000862F70E060E02AF09A95660F771F881FA8
:10081000DAF7880F9695879597F9089557FD9058C0
:10082000440F551F59F05F3F71F04795880F97FBB4
:10083000991F61F09F3F79F087950895121613066E
:100840001406551FF2CF4695F1DF08C0161617069D
:100850001806991FF1CF86957105610508940895D2
:10086000E894BB2766277727CB0197F908950E9464
:100870004A040C94BB040E94AD0438F00E94B404F6
:1008800020F0952311F00C94A4040C94AA041124D4
:100890000C9431040E940E0470F3959FC1F3950FE0
:1008A00050E0551F629FF001729FBB27F00DB11DF4
:1008B000639FAA27F00DB11DAA1F649F6627B00D84
:1008C000A11D661F829F2227B00DA11D621F739F6D
:1008D000B00DA11D621F839FA00D611D221F749F7B
:1008E0003327A00D611D231F849F600D211D822FC2
:1008F000762F6A2F11249F5750409AF0F1F08823E9
:100900004AF0EE0FFF1FBB1F661F771F881F915015
:100910005040A9F79E3F510580F00C94A4040C941C
:1009200031045F3FE4F3983ED4F38695779567955D
:10093000B795F795E7959F5FC1F7FE2B880F911D3F
:100940009695879597F9089597F99F6780E870E0E5
:1009500060E008959FEF80EC089500240A94161635
:10096000170618060906089500240A94121613069D
:10097000140605060895092E0394000C11F488232B
:1009800052F0BB0F40F4BF2B11F460FF04C06F5F47
:100990007F4F8F4F9F4F0895EE0FFF1F0590F491EB
:1009A000E02D0994A29FB001B39FC001A39F700DD9
:1009B000811D1124911DB29F700D811D1124911D67
:0609C0000895F894FFCF3A
:1009C60020204E6F206F626A6563740064697374D9
:0A09D600616E63653D00636D000073
:00000001FF
